:020000040800F2
:1000000000800120E13E0008710D0008750D000818
:10001000790D00087D0D0008810D0008000000002A
:100020000000000000000000000000008939000806
:10003000850D000800000000393A0008913A0008D8
:10004000293F0008293F0008293F0008293F0008F0
:10005000293F0008293F0008293F0008293F0008E0
:10006000293F0008293F0008293F0008293F0008D0
:10007000293F0008293F0008293F0008293F0008C0
:10008000293F0008293F0008293F00080000000020
:10009000000000000000000000000000293F0008F0
:1000A000293F0008293F0008293F0008293F000890
:1000B000293F0008293F0008293F0008C918000807
:1000C0007D180008293F0008293F0008293F000843
:1000D000A9170008293F0008711D00080000000052
:1000E000293F0008293F0008293F000800000000C0
:1000F000000000000000000000000000293F000890
:1001000000000000293F0008293F0008293F00089F
:1001100000000000000000000000000000000000DF
:10012000293F0008293F0008293F0008293F00080F
:10013000293F00080000000000000000000000004F
:10014000000000000000000000000000293F00083F
:10015000293F0008293F0008293F0008293F0008DF
:10016000293F0008293F00080000000000000000AF
:10017000000000000000000000000000000000007F
:1001800000000000293F00080000000000000000FF
:04019000293F0008FB
:1001940008B540F22000074BC2F200001B1A062BE0
:1001A40000D808BD40F20003C0F20003002BF8D0D1
:1001B4009847F6E72300002008B540F2200040F2FB
:1001C4002003C2F20000C2F200031B1A9B1003EBCF
:1001D400D373591000D108BD40F20002C0F20002EE
:1001E400002AF8D09047F6E710B540F22004C2F296
:1001F4000004237873B9FFF7CBFF40F20003C0F289
:1002040000032BB144F2FC00C0F60000AFF3008001
:100214000123237010BD00BF08B540F20003C0F2F3
:1002240000034BB144F2FC0040F22401C0F600008C
:10023400C2F20001AFF3008040F22000C2F20000DD
:1002440003682BB140F20003C0F2000303B19847E6
:10025400BDE80840B0E700BF70B544F2141644F29C
:100264001415C0F60006C0F60005761BB6101CBFB8
:10027400043D002405D0013455F8043F9847A642B4
:10028400F9D144F2181644F21415C0F60005C0F66C
:100294000006761B03F030FFB6101CBF043D00249B
:1002A40006D0013455F8043F9847A642F9D170BDF1
:1002B40070BD00BF0F2AF0B445D940EA01039B0783
:1002C40045D1A2F110070C4603463F0900EB07167F
:1002D400103625681033103443F8105C54F80C5C65
:1002E40043F80C5C54F8085C43F8085C54F8045C6C
:1002F40043F8045CB342ECD17B1C02F00F0CBCF15C
:10030400030F4FEA03131944034422D90E461D4632
:10031400644656F8047B043C032C45F8047BF8D867
:10032400ACF1040402F0030224F003040434234473
:10033400214432B10A4411F8014B914203F8014BB4
:10034400F9D1F0BC70470346002AF3D1F9E703461C
:10035400F0E76246002AEDD1F3E700BFC378012B32
:1003640070B5044606D943F62C70C0F600008D2102
:1003740001F0F4F963780F2B47D8A3780F2B3CD8FE
:10038400E37873B922784FF461435109203102F0C4
:100394001F020120CEF2000300FA02F243F82120EA
:1003A40070BD4FF46D43CEF200036678DA68A0782E
:1003B4002378D243C2F30222C2F10401C9B20F2549
:1003C40006FA01F145FA02F2C9B202400A4303F106
:1003D400604303F561431201D2B283F8002322780B
:1003E4004FF4614302F01F0101205209CEF20003D1
:1003F40000FA01F143F8221070BD43F62C70C0F6E8
:1004040000008F2101F0AAF9BAE743F62C70C0F678
:1004140000008E2101F0A2F9AFE700BF2DE9F84FEB
:1004240000224FF48063C4F20202C4F20203904239
:1004340018BF9842054688460BD04FF400624FF42B
:100444004063C4F20202C4F20203904218BF98420D
:1004540068D1B8F80030002B00F0B38098F804306D
:10046400032B00F2A68098F80730022B00F2998043
:10047400002634464FF001094FF0030B04E0013429
:10048400102C06F1020627D0D8F8007009FA04F3FC
:100494001F409F42F3D12A6898F804300BFA06FAF9
:1004A4006FEA0A0A0AEA02022A602A6803FA06F1D3
:1004B400013B0A43012B2A6010D9EA6898F80730F7
:1004C4000AEA0202EA60EA68B34001341343102CDA
:1004D400EB6006F10206D7D1BDE8F88F98F8053035
:1004E400032B54D8A96898F806200AEA0101A960E8
:1004F400A968B3400B43012AAB6008D943F65C708A
:10050400C0F60000EB2101F029F998F8062069688B
:1005140021EA07076F60696802FA04F39BB20B4390
:100524006B60CAE74FF480524FF4A053C4F2020246
:10053400C4F20203904218BF98428AD04FF4C052CA
:100544004FF4E053C4F20202C4F20203904218BF13
:1005540098423FF47EAF4FF400524FF41053C4F26C
:100564000202C4F20203904218BF98423FF471AFF2
:100574004FF42053C4F2020398423FF46AAF43F6A7
:100584005C70C0F60000CF2101F0E8F861E743F6A3
:100594005C70C0F60000E42101F0E0F898F8053042
:1005A400A0E743F65C70C0F60000D22101F0D6F853
:1005B4005EE743F65C70C0F60000D12101F0CEF88E
:1005C40051E743F65C70C0F60000D02101F0C6F894
:1005D40044E700BF38B500224FF48063C4F202023E
:1005E400C4F20203904218BF984204460D460BD051
:1005F4004FF400624FF44063C4F20202C4F20203F7
:10060400904218BF98420AD13DB943F65C70C0F6D7
:1006140000004FF4D07101F0A1F8258338BD4FF4E8
:1006240080524FF4A053C4F20202C4F20203904277
:1006340018BF9842E8D04FF4C0524FF4E053C4F2CC
:100644000202C4F20203904218BF9842DCD04FF475
:1006540000524FF41053C4F20202C4F20203904257
:1006640018BF9842D0D04FF42053C4F202039842EA
:10067400CAD043F65C70C0F6000040F29F1101F04E
:100684006DF8C1E7F8B500274FF48063C4F20207A0
:10069400C4F20203B84218BF984204460D461646F7
:1006A4000BD04FF400624FF44063C4F20202C4F270
:1006B4000203904218BF984221D10F2D52D80A2E1E
:1006C4000BD90C2E09D00F2E07D043F65C70C0F660
:1006D400000040F24B2101F041F8EB0804EB8304E5
:1006E40005F00705226AAD000F23AB4022EA03039D
:1006F4002362236A06FA05F51D432562F8BD4FF40B
:1007040080524FF4A053C4F20202C4F20203904296
:1007140018BF9842D1D04FF4C0524FF4E053C4F202
:100724000202C4F20203904218BF9842C5D04FF4AB
:1007340000524FF41053C4F20202C4F20203904276
:1007440018BF9842B9D04FF42053C4F20203984220
:10075400B3D043F65C70C0F6000040F2492100F0CB
:10076400FDFFAAE743F65C70C0F6000040F24A21A0
:1007740000F0F4FFA3E700BF38B54FF4A8424FF4EC
:10078400B043C4F20002C4F20003904218BF98427E
:1007940004460D460DD04FF4B843C4F2000398420A
:1007A40007D043F69870C0F600004FF49E7100F035
:1007B400D5FF012D0DD943F69870C0F6000040F224
:1007C4003D1100F0CBFF23889BB243F0010323804B
:1007D40038BD002DF7D1238823F001031B041B0C23
:1007E400238038BD38B54FF4A8424FF4B043C4F267
:1007F4000002C4F20003904218BF984204460D461A
:100804000DD04FF4B843C4F20003984207D043F626
:100814009870C0F600004FF4D57100F09FFF012DD1
:100824000DD943F69870C0F6000040F2AB1100F009
:1008340095FF23889BB243F40073238038BD002DB9
:10084400F7D1238823F400731B041B0C238038BDC9
:10085400F8B54FF4A8454FF4B043C4F20005C4F210
:100864000003A84218BF984204460F4616460DD00E
:100874004FF4B843C4F20003984207D043F698708B
:10088400C0F600004FF4E37100F068FF012E0BD9AD
:1008940043F69870C0F6000040F2C71100F05EFF06
:1008A40047F001072782F8BD002EF9D107F0FE07B3
:1008B4002782F8BD38B54FF4A8424FF4B043C4F2D0
:1008C4000002C4F20003904218BF984204460D4649
:1008D4000DD04FF4B843C4F20003984207D043F656
:1008E4009870C0F6000040F2E11100F037FF012DCE
:1008F4000DD943F69870C0F600004FF4F17100F082
:100904002DFF23889BB243F48063238038BD002DE0
:10091400F7D1238823F480631B041B0C238038BD88
:1009240038B54FF4A8424FF4B043C4F20002C4F205
:100934000003904218BF984204460D460DD04FF470
:10094400B843C4F20003984207D043F69870C0F647
:10095400000040F2F72100F001FF258238BD00BFFE
:100964004FF4A8424FF4B043C4F20002C4F20003AF
:10097400904218BF984210B504460DD04FF4B843C6
:10098400C4F20003984207D043F69870C0F6000002
:100994004FF4417100F0E2FE208AC0B210BD00BFE6
:1009A40030B54FF4A8424FF4B043044683B0C4F2C8
:1009B4000002C4F200030020944218BF9C420D467A
:1009C400019017D115F0F3030BD0102B09D0202D73
:1009D40007D043F69870C0F6000040F2364100F0AC
:1009E400BDFE0194019B1D440195019B188880B2B2
:1009F40003B030BD4FF4B843C4F200039C42E1D0CD
:100A040043F69870C0F6000040F2354100F0A6FEAF
:100A1400D8E700BFF8B54FF4A8474FF4B043C4F289
:100A24000007C4F20003B84218BF984204460D46BA
:100A340016460DD04FF4B843C4F20003984207D0D1
:100A440043F69870C0F6000040F24E4100F086FE76
:100A5400012E07D943F69870C0F6000040F24F41CA
:100A640000F07CFE4FF6FF032B403BB935B1A38861
:100A74009BB27EB923EA0505A580F8BD43F69870BC
:100A8400C0F600004FF48A6100F068FEA3889BB2B0
:100A9400002EEFD01D43A580F8BD00BF4FF4A8423F
:100AA4004FF4B043C4F20002C4F20003904218BFF2
:100AB400984210B504460DD04FF4B843C4F2000375
:100AC400984207D043F69870C0F6000040F2BC414B
:100AD40000F044FEA08A238B80B240EA034020F059
:100AE4007F4010BD30B54FF4A8424FF4B04383B0FB
:100AF4000546C4F20002C4F200030020954218BF68
:100B04009D4200900C4601900DD04FF4B843C4F2BE
:100B140000039D4207D043F69870C0F6000040F2EF
:100B2400F34100F01BFEB4F5000F18BFB4F5800FBD
:100B340005D0B4F5001F18BFB4F5801F16D1230FDC
:100B440001950093009B24F07F4453B1019B14331F
:100B54000193019B1B681C420CBF0020012003B0C1
:100B640030BD019B1833240C0193F2E7B4F5802FB8
:100B740018BFB4F5003FE2D04FF40043C1F20003C4
:100B8400B4F5803F18BF9C42D9D04FF48043C1F2E2
:100B940000039C4218BFB4F1102FD0D04FF4006270
:100BA4004FF48063C1F20002C1F20003944218BF03
:100BB4009C42C4D04FF400724FF48073C1F200021F
:100BC400C1F20003944218BF9C42B8D08022402353
:100BD400C1F20002C1F20003944218BF9C42AED09D
:100BE40010220823C1F20002C1F20003944218BF8C
:100BF4009C42A4D00423C1F200039C429FD004F180
:100C04007043013B012B9AD943F69870C0F600005B
:100C140040F2F44100F0A2FD91E700BF38B54FF473
:100C2400A8424FF4B043C4F20002C4F2000390425D
:100C340018BF984205460C460DD04FF4B843C4F291
:100C44000003984207D043F69870C0F6000040F2C3
:100C5400625100F083FD4FF400424FF48043C0F230
:100C64000012C0F20013944218BF9C420BD04FF400
:100C740080524FF40063C0F20012C0F20013944299
:100C840018BF9C420DD1AB88A88A80B220409BB289
:100C940006D004F0E06413EA14440CBF00200120E1
:100CA40038BD4FF480624FF40073C0F20012C0F2FA
:100CB4000013944218BF9C42E5D08023C0F2006325
:100CC400B4F1012F18BF9C42DDD040221023C0F2A2
:100CD4000062C0F20023944218BF9C42D3D0082281
:100CE4000423C0F20022C0F20023944218BF9C42A5
:100CF400C9D004F17E43013B012BC4D943F698705B
:100D0400C0F6000040F2635100F028FDBBE700BFCD
:100D140038B54FF4A8424FF4B043C4F20002C4F211
:100D24000003904218BF984204460D460DD04FF47C
:100D3400B843C4F20003984207D043F69870C0F653
:100D4400000040F29C5100F009FD42F2FF032B40E9
:100D540003B93DB943F69870C0F6000040F29D51C6
:100D640000F0FCFCED43ADB2A58238BD704700BF76
:100D7400FEE700BFFEE700BFFEE700BFFEE700BFDF
:100D8400704700BF4FF46053C4F2020310B49A6872
:100D940002F00C02042A24D0082A28D04FF410515F
:100DA400C0F2F40101604FF46052C4F2020240F256
:100DB40000039468C2F20003C4F303141C5DE14011
:100DC40041609468C4F382241C5D21FA04F48460B5
:100DD40092685DF8044BC2F342329B5CD940C16017
:100DE40070474FF49051C0F27A010160DBE75C6810
:100DF4005A6814F4800F5C6815BF4FF490534FF495
:100E04001053C0F27A03C0F2F40302F03F02B3FBC2
:100E1400F2F14FF46053C4F20203C4F388145B6824
:100E2400C3F30143013301FB04F15B00B1FBF3F1B4
:100E34000160B8E738B54FF46843C8F20B130340B8
:100E440004460D4693B988B1012D19D943F6D470DF
:100E5400C0F6000040F2037100F080FC4FF46053D0
:100E6400C4F202031A6B14431C6338BD43F6D470F6
:100E7400C0F6000040F2017100F070FC012DE5D8CD
:100E8400002DEBD14FF46053C4F202031A6B22EA33
:100E940004041C6338BD00BF10F4585F38B5044621
:100EA4000D4612D188B1012D19D943F6D470C0F67C
:100EB40000004FF4EF6100F051FC4FF46053C4F2B2
:100EC40002031A6C14431C6438BD43F6D470C0F694
:100ED400000040F2777100F041FC012DE5D8002DAF
:100EE400EBD14FF46053C4F202031A6C22EA0404F7
:100EF4001C6438BDF0B54FF488424FF48053C4F2FB
:100F04000002C4F20103904218BF984285B004461F
:100F14000D460CBF002601260CD04FF490424FF42E
:100F24009843C4F20002C4F20003904218BF9842EE
:100F340040F0CD802B6847F2DF01013BC0F2720123
:100F44008B4200F2E680AB8823F480531B041B0C15
:100F5400002B40F0E680EB8823F440539BB2002B37
:100F640040F0ED802B894FF6FF31194051B1B3F5B4
:100F7400C06F07D044F21000C0F600004FF4817136
:100F840000F0ECFB6B894FF6F3711940002975D121
:100F9400002B73D0AB894FF6FF621A40002A7BD036
:100FA400B2F5007F00F0C68044F210004FF4827165
:100FB400C0F6000000F0D2FBA98900296FD1228A73
:100FC400EB882F89AE88688922F440521204120CEF
:100FD4001A432282A38923F4B05347EA060223F07A
:100FE4000C0302431B0492B21B0C1343A381A38A78
:100FF40023F440731B041B0C0B43A3826846FFF7C6
:10100400C1FEA6890298039B4FF4A0514FF480526D
:10101400C4F20101C4F20102944218BF8C4232B2FC
:1010240018BF0346002A2A68A08903EB8303B4BFD0
:101034005200920003EB8303B3FBF2F348F21F5216
:10104400C5F2EB12A2FB035100B264254909002842
:1010540001FB1533B5BFDB001B0132333233B5BF9F
:10106400A2FB0302A2FB0352C2F34212C2F34312D5
:101074000901114389B2218105B0F0BD44F2100089
:10108400C0F6000040F2031100F068FBAB894FF694
:10109400FF621A40002A83D1194600298FD0002EFE
:1010A4008DD04FF490424FF4A053C4F20002C4F226
:1010B4000103944218BF9C4281D044F2100040F2D4
:1010C4000911C0F6000000F049FBA98977E74FF445
:1010D400A0424FF4A053C4F20002C4F201039042B0
:1010E40018BF98423FF426AF4FF4F0424FF4F84350
:1010F400C4F20002C4F20003904218BF98423FF4C5
:1011040019AF44F21000C0F60000FE2100F026FBE7
:1011140010E744F21000C0F60000FF2100F01EFBAF
:1011240011E744F21000C0F600004FF4807100F0A3
:1011340015FB10E71946002E3FF441AFB1E744F226
:101144001000C0F6000040F2011100F007FB09E7AF
:1011540038B54FF480524FF48843C4F20102C4F20C
:101164000003904218BF984204460D460BD04FF43A
:1011740090424FF49843C4F20002C4F20003904238
:1011840018BF98420FD1012D2ED944F21000C0F699
:10119400000040F2AF1100F0E1FAA3899BB243F4DE
:1011A4000053A38138BD4FF4A0424FF4A053C4F2BE
:1011B4000002C4F20103904218BF9842E3D04FF4F6
:1011C400F0424FF4F843C4F20002C4F20003904228
:1011D40018BF9842D7D044F21000C0F600004FF474
:1011E400D77100F0BBFACEE7002DD6D1A38923F442
:1011F40000531B041B0CA38138BD00BF38B54FF44A
:1012040080524FF48843C4F20102C4F200039042B6
:1012140018BF984204460D460BD04FF490424FF449
:101224009843C4F20002C4F20003904218BF9842EB
:101234000ED1B5F5007F07D344F21000C0F60000CC
:1012440040F2312100F08AFAC5F30805A58038BDC3
:101254004FF4A0424FF4A053C4F20002C4F20103BD
:10126400904218BF9842E4D04FF4F0424FF4F84350
:10127400C4F20002C4F20003904218BF9842D8D0CE
:1012840044F21000C0F600004FF40C7100F066FA4E
:10129400CFE700BFF8B54FF488464FF48053C4F24B
:1012A4000006C4F20103B04218BF984204460D463A
:1012B40017460CBF002601260BD04FF490414FF483
:1012C4009842C4F20001C4F20002884218BF90425E
:1012D40048D140F22772282D18BF954207D040F21A
:1012E400266240F22553954218BF9D4223D1012F17
:1012F40007D944F21000C0F6000040F2D64100F0D5
:101304002DFA40F66A12954250D005F01F030122CF
:10131400C5F34215954202FA03F308BF0C3404D016
:10132400022D08BF103400D014342268DFBB22EA37
:1013340003032360F8BD40F2244240F6460395427D
:1013440018BF9D42D3D003F592739D4218BF602D00
:10135400CDD044F21000C0F6000040F2D54100F0B8
:10136400FDF9C4E74FF4A0424FF4A053C4F20002C5
:10137400C4F20103904218BF9842AAD04FF4F0423D
:101384004FF4F843C4F20002C4F20003904218BFC1
:1013940098429ED044F21000C0F6000040F2D441BE
:1013A40000F0DCF995E713432360F8BD5EB14FF418
:1013B40090424FF4A053C4F20002C4F201039442D9
:1013C40018BF9C4202D14FF48063ADE744F2100091
:1013D400C0F6000040F2DB4100F0C0F9F3E700BFC3
:1013E4004FF488424FF48053C4F20002C4F2010364
:1013F400904218BF984270B504460D460CBF0026B3
:1014040001260BD04FF490404FF49841C4F20000F1
:10141400C4F20001844218BF8C4251D140F22771BA
:10142400282D18BF8D4207D040F2266240F2255382
:10143400954218BF9D4221D140F66A118D4264D075
:101444000120C5F3421305F01F02834200FA02F2A1
:1014540057D0022B69D0A08A80B210402388012182
:101464002D0A9BB201FA05F51D420CBF002301238E
:1014740000280CBF002003F0010070BD40F224429C
:1014840040F64603954218BF9D42D5D003F59273AA
:101494009D423AD040F225339D42D1D04FF6FF53BE
:1014A4002B40B5F5187F18BFB3F5B07FC8D044F210
:1014B4001000C0F600004FF4AD6100F04FF9BFE733
:1014C4004FF4A0424FF4A053C4F20002C4F201034B
:1014D400944218BF9C42A1D04FF4F0424FF4F84319
:1014E400C4F20002C4F20003944218BF9C4295D097
:1014F40044F21000C0F6000040F2675100F02EF9EB
:101504008CE7A08980B21040A8E75EB14FF4904206
:101514004FF4A053C4F20002C4F20103944218BF72
:101524009C4206D14FF4806295E7208A80B2104035
:1015340094E744F21000C0F6000040F26D5100F050
:101544000DF9EFE74FF46D42CEF200024FF4605311
:10155400D2F88810C4F2020341F47001C2F8881072
:101564001968002241F0010119609A60186843F279
:10157400100120F08470C2F2004120F48030186021
:101584005960196882B021F480211960DA600092F0
:1015940001921A6842F480321A601A4603E0009BF2
:1015A400B3F5A04F09D0136803F400330193009BF3
:1015B40001330093019B002BF1D04FF46053C4F22C
:1015C40002031B6813F4003318BF01230193019B2A
:1015D400012B08D04FF46D43CEF200034FF00062AC
:1015E4009A6002B070474FF46053C4F202034FF4A0
:1015F400E042196CC4F2000241F080511964116890
:1016040041F4404111609A689A609A689A609968B6
:1016140045F2084241F48051C0F2417299605A6027
:101624001A6842F080721A6019460A684FF46053CF
:101634009201C4F20203F8D54FF47052C4F20202CC
:1016440040F2027111609A6822F003029A609A686B
:1016540042F002029A609A6802F00C02082AFAD157
:10166400B8E700BF08B540F21004C2F2000400F06D
:1016740093F844F24C00C0F6000000F09FFB44F2E3
:101684006400C0F60000218800F098FB228822B193
:1016940000230133DBB29A42FBD8013201202280BD
:1016A40001F032F8E3E700BF08B540F21004C2F2DB
:1016B400000400F071F844F27800C0F6000000F075
:1016C4007DFB44F26400C0F60000218800F076FB44
:1016D400228822B100230133DBB29A42FBD80132C3
:1016E4000120228001F010F8E3E700BF00B585B0C7
:1016F40000F09CFA00F0EEFA00F032F844F29000A8
:10170400C0F600004FF47A714FF4FA6200F056FB11
:101714000024012541F2AD6044F2A0012346C0F645
:101724000001C8220095019402940394C0F60000BD
:1017340000F00EFD41F2696044F2A8012346C0F6B0
:101744000001C8220095019402940394C0F600009D
:1017540000F0FEFC00F0F0FDFEE700BFFEE700BF76
:1017640030B5012083B00146FFF764FB002000235D
:101774000322C4F2020020250124694600958DF855
:1017840004408DF806308DF807308DF80520FEF7FB
:1017940045FE03B030BD00BF0020C4F2020020218A
:1017A400FEF718BF4FF4605038B5C4F20000712141
:1017B40002F036FB98B142F28853C2F200031A7861
:1017C400022A36D840F21401C2F200014FF46050EC
:1017D400895CC4F2000001321A7002F083FA4FF4FB
:1017E4006050C4F20000602102F01AFB00B342F220
:1017F4009013C2F200031B78ABB342F28854C2F2D6
:1018040000040020C4F202002021FEF7E3FE257844
:101814004FF460506B1CC4F20000237002F026FAEF
:1018240040F214032278C2F20003022A58550BD85E
:1018340038BD4FF460500024C4F20000712101222D
:101844001C7002F08BFACAE74FF46050C4F2000037
:10185400002102F0C1F94FF46050C4F2000071217C
:10186400002202F07BFA4FF46050C4F20000BDE89D
:10187400384002F0FBB900BF4FF4A8404FF4806138
:1018840010B5C4F20000C0F20011FFF7C7F970B937
:101894004FF4A844C4F2000420461421FFF780F852
:1018A40010F47F4F1EBFA38ADBB2A38210BD4FF496
:1018B400A8404FF48061C4F20000C0F20011FFF7A9
:1018C40027FAE5E74FF4A84070B5C4F20000FFF72B
:1018D400E5F840F24003C2F20003022218601B68DC
:1018E400C0F20302934200F0218118D8B3F1021F21
:1018F40000F00F812BD8102B00F0CE80B3F5806F51
:1019040040F0628142F25E6240F24403C2F200029D
:10191400C2F20003002001211070197016E0842225
:10192400C0F20602934245D05CD88022C0F206027F
:1019340093423FD08222C0F20602934200F02B81F0
:101944004022C0F20302934200F0068170BD44229B
:10195400C0F20202934200F0C9800122C0F20302E5
:10196400934240F0BD8040F23C0640F2440542F20E
:101974005E63C2F20003C2F20006C2F200054FF435
:10198400A8400024C4F200004FF4806101221C70BE
:1019940034702C70FFF73EF842F2F453C2F20003A5
:1019A4004FF4A8401A78C4F20000E021BDE870406A
:1019B400FEF74EBF42F25E6342F2F852C2F20003F7
:1019C400C2F200021C7892F86410A142BED94FF40E
:1019D400A840115D01341C70C4F20000BDE87040E1
:1019E400FEF79EBF8222C0F20702934240D08422B7
:1019F400C0F20702934204D08022C0F2070293424D
:101A0400A4D142F25E6342F2F852C2F20003C2F27F
:101A140000021C7892F86410A1424FF4A840D8D870
:101A2400C4F200000121FEF7DDFE4FF4A840C4F229
:101A340000004FF40031FFF755F804460028F4D1B4
:101A440040F23C03C2F200034FF4A8400125C4F263
:101A540000004FF4806122461D70FEF7DBFF4FF457
:101A6400A8402146C4F20000BDE87040FEF784BEE1
:101A740042F25E63C2F2000342F2F8521978C2F2F3
:101A840000024C1C4FF4A8401C70515CC4F20000CE
:101A9400BDE87040FEF744BF42F25E64C2F2000447
:101AA40042F2F8532278C2F200034FF4A840102106
:101AB400C1F20001C4F2000083F86420FFF712F8B9
:101AC4004FF4A8400121C4F20000FEF755FE40F295
:101AD4004403C2F200030021012221701A7070BD78
:101AE4004022C0F2020293427FF430AF42F25E63BE
:101AF400C2F200034FF4A8401C78C4F20000621C38
:101B04001A70FEF72DFF42F2F853C2F20003185583
:101B140070BD4FF4A840C4F20000FEF7BFFF42F2CC
:101B24005E63C2F2000300221A7070BD42F2636267
:101B3400C2F2000242F28C531278C2F20003012A6C
:101B44001A707FF403AF4FF4A840C4F200000021E0
:101B5400BDE87040FEF7AEBE42F28C54C2F20004FF
:101B64002178022959D001292FD042F25E63C2F2B2
:101B740000034FF4A8401D78C4F200006A1C1A70D8
:101B8400FEF7EEFE42F2F8532278C2F20003013A65
:101B94005855227070BD4FF4A840C4F20000FEF7FF
:101BA4007DFF42F2F852C2F2000242F25E63C2F2D8
:101BB4000003117801224FF4A8401A70C4F2000007
:101BC400BDE87040FEF7ACBE70BD4FF4A840C4F24F
:101BD4000000FEF707FE4FF4A840C4F200004FF4E3
:101BE4000031FEF77FFF05460028F4D140F244039C
:101BF400C2F200034FF4A8400126C4F200004FF4DF
:101C040080612A461E70FEF705FF4FF4A84029465E
:101C1400C4F20000FEF7B0FDA7E74FF4A84000218E
:101C2400C4F20000FEF746FE21789CE742F28C11D4
:101C340042F29C12C2F2000142F2A013C2F200026C
:101C4400C2F200030B601360704700BF38B542F264
:101C54009C14C2F2000440F22771256828704FF4E6
:101C64008840C4F200000122FFF714FB084B6A1CF1
:101C74009A4242F28C13C2F2000308BFA5F1630238
:101C84001B689A421ABF4FF0FF302260002038BD13
:101C94000422002042F28C1342F29C12C2F200038E
:101CA400C2F20002196812688A420FD04A1C1A60F4
:101CB4000A78074902701A688A4202D04FF0FF304E
:101CC4007047643A1A604FF0FF3070470020704745
:101CD400042200202DE9F04188B008A84FF4937342
:101CE400C0F2001340F81C3DFEF738FB012001460A
:101CF4000027FFF79FF8C4F202074FF400300121D8
:101D0400FFF7CAF800240226042338464FF00108DE
:101D140002A94FF488450293C4F200058DF80D60C2
:101D24008DF80C608DF80E408DF80F80FEF776FB71
:101D3400384631460722FEF7A5FC4FF4E13208236A
:101D4400284604A90492ADF81A30ADF81440ADF851
:101D54001640ADF81840ADF81C40FFF7CBF8284604
:101D64004146FFF7F5F908B0BDE8F08100B54FF43E
:101D7400884083B0C4F2000040F22771FFF730FBC3
:101D840010B903B05DF804FBFFF706FD6846FFF7E2
:101D940081FF02464FF48840C4F2000032B19DF83E
:101DA4000010FFF72BFA03B05DF804FB40F2277133
:101DB400FFF770FA03B05DF804FB00BF0FB42DE920
:101DC400F043A1B028AD3F2755F8044B00F052FB77
:101DD40000234CF6CD400195CCF6CC401D46302670
:101DE4004FF02D0E22785AB1252A1FD020A919446C
:101DF400013401F8502C22780133DBB2002AF3D1EC
:101E04000DF1800C63440CAC03F8502C9DF83000A9
:101E140028B1FFF71BFF14F8010F0028F9D100F0D7
:101E2400FBFB21B0BDE8F04304B07047617864293E
:101E340004F1020400F0CA800DD8622900F0898000
:101E440000F2F78025290DD120AA1A44013302F8A3
:101E5400501CDBB2C6E7732900F0F78078293BD029
:101E6400692906D020AA1A44013302F8507CDBB257
:101E7400B8E7019A1168043200290192A4BF8DF8D1
:101E840028500DF1270C01DAF5E01146A0FB018280
:101E9400D20802EB8208A1EB48015FFA81F808F14D
:101EA400300908F15708092994BF49464146C9B287
:101EB400E0460CF80119002AE7D1002992D04246E5
:101EC4000DF1800C9C4401330CF8501C12F8011FD6
:101ED400DBB20029F4D185E70DF1800C019A8DF86D
:101EE400285003F10108E1465CFA88F8994402F1AC
:101EF400040C023309F8506CCDF804C0126808F8D9
:101F0400501CDBB20DF1270C00E00A461109A2EBCC
:101F140001125FFA82F808F1300908F15708092A1A
:101F240094BF4A464246D2B2E0460CF80129002941
:101F3400EBD1002A3FF456AF41460DF1800C9C448E
:101F440001330CF8502C11F8012FDBB2002AF4D124
:101F540048E70DF1800C019A8DF8285003F101082F
:101F6400E1465CFA88F8994402F1040C023309F85A
:101F7400506CCDF804C0126808F8501CDBB20DF1A7
:101F8400270C00E00A465108A2EB41025FFA82F8EE
:101F940008F1300908F15708092A94BF4A46424615
:101FA400D2B2E0460CF801290029EBD1002A3FF413
:101FB40019AF41460DF1800C9C4401330CF8502CB0
:101FC40011F8012FDBB2002AF4D10BE7019A8DF846
:101FD400285002F1040CCDF804C011680DF1270C4F
:101FE40000E01146A0FB0182D20802EB8208A1EBBB
:101FF40048015FFA81F808F1300908F15708092906
:1020040094BF49464146C9B2E0460CF80119002A7A
:10201400E7D100293FF4E6AE42460DF1800C9C4422
:1020240001330CF8501C12F8011FDBB20029F4D163
:10203400D8E6019A20A9D2F800C019440432013329
:10204400019201F850CCDBB2CCE6019A116804325B
:10205400019291F800C01A4601E094461A460DF127
:102064008008904411F8012F08F850CC0133DBB2FA
:10207400002AF2D1B6E620AA1A44013349428DF867
:10208400285002F850ECDBB20DF1270C00E01146A9
:10209400A0FB0182D20802EB8208A1EB48085FFA98
:1020A40088F909F1300109F15709B8F1090F88BF1E
:1020B4004946C9B2E0460CF80119002AE7D10029C3
:1020C4003FF490AE42460DF1800C9C4401330CF871
:1020D400501C12F8011FDBB20029F4D182E600BFC4
:1020E40038B540F26805C2F20005002428191434FA
:1020F40001F086F9642CF9D140F2FC05C2F2000526
:1021040040F210142846C2F2000401F079F9204686
:1021140001F076F940F2D800C2F2000001F070F943
:1021240040F25400C2F2000001F06AF940F22810B3
:10213400C2F2000001F064F940F2480240F2F403F4
:10214400C2F20002C2F2000315601C6038BD00BF79
:102154002DE9F84F0A9FDDF82CA00C9E81460D4610
:1021640090469B46002800F0C580042F02D901F058
:1021740025FCFEE7482001F0A3FB0446002800F0FC
:10218400D780002E00F0C980066330462A7808F113
:10219400804384F83420013B2A7800EB830323F046
:1021A4000706002A47D06B7884F835306B78002B0B
:1021B40041D0AB7884F83630AB78002B3BD0EB7849
:1021C40084F83730EB78002B35D02B7984F838300D
:1021D4002B79002B2FD06B7984F839306B7953B37A
:1021E400AB7984F83A30AB792BB3EB7984F83B3094
:1021F400EB7903B32B7A84F83C302B7ADBB16B7A1E
:1022040084F83D306B7AB3B1AB7A84F83E30AB7A64
:102214008BB1EB7A84F83F30EB7A63B12B7B84F893
:1022240040302B7B3BB16B7B84F841306B7B13B12B
:10223400AB7B84F84230002304F1040884F8433073
:102244004046E762676401F0E7F804F1180001F022
:10225400E3F8C7F1050324616462304649465A46EF
:10226400A36101F079FB2060BAF1000F01D0CAF834
:10227400004001F0B9FB40F2D003C2F2000340F287
:10228400D4061A68C2F2000601321A603268002AC3
:1022940038D040F24C05C2F200052B6823B93368EC
:1022A400DB6A9F4228BF346040F2F800C2F20000AB
:1022B40040F23C12C2F200020168E36A1468013180
:1022C400A342016040F2680088BF1360C2F20000BC
:1022D40003EB830300EB8300414601F0A1F801F016
:1022E40097FB2B681BB13368DB6A9F4205D801203A
:1022F400BDE8F88F01F062FBFEE701F053FB01201B
:10230400BDE8F88F34601B68012B40F24C0501D105
:10231400FFF7E6FEC2F20005C6E74FEA880001F0C7
:10232400CFFA206300287FF431AF204601F0F6FA9B
:102334004FF0FF30BDE8F88FF8B5482001F0C0FA3F
:102344000446002800F081804FF4806001F0B8FA60
:10235400206300287DD04FF0490E002544214C22F3
:102364004523271D84F834E084F8351084F836209A
:1023740084F8373000F57F7684F83850384684F88E
:102384004350E562656401F047F804F1180001F078
:1023940043F826F00706052342F299712A46A36101
:1023A4003046C0F600012461646201F0D5FA206071
:1023B40001F01AFB40F2D003C2F2000340F2D4064B
:1023C4001A68C2F2000601321A603268002A45D047
:1023D40040F24C05C2F200052B681BB93368DB6A76
:1023E40003B9346040F2F801C2F2000140F23C1239
:1023F400C2F200020868E36A14680130A34208606C
:1024040040F2680088BF1360C2F2000003EB83034C
:1024140000EB8300394601F003F801F0F9FA2B6868
:1024240003B1336801F03AF8012804460CD101F0F5
:10243400C5FA40F2F003C2F2000300222C601A60D5
:10244400BDE8F84001F044BB04B1F8BD01F0B6FAB0
:10245400FEE72046BDE8F84001F060BA34601B682E
:10246400012B40F24C0501D1FFF73AFEC2F2000500
:10247400B8E700BF40F2CC03C2F200031A6801328D
:102484001A60704710B501F0AFFA40F2F003C2F2DF
:1024940000031C6801F0BCFA204610BD2DE9F04F82
:1024A40040F2CC03C2F2000383B01B68002B65D159
:1024B40040F2F003C2F2000340F218041A68013239
:1024C4001A60D3F80090C2F20004B9F1000F69D089
:1024D4002368994570D340F2480840F2680640F2F8
:1024E400D40B40F23C17C2F20008C2F20006C2F25A
:1024F400000BC2F2000700252DE040F24803C2F2AF
:1025040000031A68D268D2F80CA0DAF804100AF1B1
:10251400040389450193184674D300F0ABFFDAF83D
:1025240028100AF1180009B100F0A4FFDAF82C30E1
:102534003A68019903EB8300934206EB800088BF5D
:102544003B6000F06DFFDBF80000DAF82C10C26A83
:10255400914228BF0125D8F800201268002ACCD166
:102564004FF0FF322260DBF80030DB6A03EB8303B9
:1025740056F82330012B88BF012507E040F22413CD
:10258400C2F2000300251A6801321A6040F24013B7
:10259400C2F200031B68002B18BF0125284603B0B4
:1025A400BDE8F08F40F24803C2F200031A681268D3
:1025B40062B101F003FAFEE740F2680640F2D40B80
:1025C400C2F20006C2F2000B0025CCE740F2F4018F
:1025D400C2F2000118680C6840F2EC02C2F2000278
:1025E4001C6008601168013111601A6812685AB1E0
:1025F4001B68DB68DB6840F218045B68C2F2000405
:10260400236065E72160AEE740F21804C2F20004DB
:102614004FF0FF3323605BE72DE9F84F40F2CC0421
:10262400C2F20004236813B901F0C8F9FEE701F00F
:10263400DBF92368013B23602368002B48D140F277
:10264400D003C2F200031B68002B41D040F2D8062D
:10265400C2F2000640F2401540F23C1440F2680910
:1026640040F2D408B246C2F20005C2F20004C2F23B
:102674000009C2F200081FE0DAF80C30DF6807F145
:10268400040B07F1180000F0F5FE584600F0F2FEC6
:10269400FB6A226803EB83009342594609EB8000EE
:1026A40088BF236000F0BCFED8F80030F96ADB6A0A
:1026B400994224BF01232B603368002BDCD140F204
:1026C4002414C2F20004236843B92C68012C14D0EA
:1026D400002401F09DF92046BDE8F88F2368002B03
:1026E400F3D00126FFF7DAFE00B12E602368013B28
:1026F40023602368002BF5D1E7E701F053F901F0DB
:1027040087F92046BDE8F88F70B5024618B9BDE8D0
:10271400704001F047B940F2CC03C2F200031968DB
:1027240059BB196840F2F00640F2D4040131C2F2F8
:102734000006C2F2000419603568206804301544AC
:1027440000F098FE2268336855609D4218D340F229
:102754004803C2F2000318682168043100F070FED7
:1027640040F21803C2F200031A68954238BF1D6094
:10277400FFF752FF0028CAD070BD01F01FF9FEE731
:1027840040F2F403C2F2000318682168043100F037
:1027940057FEEDE72DE9804840F2540683B040F23D
:1027A400500540F2D002C2F20006C2F2000540F227
:1027B400CC0440F26809C2F20002B246A846C2F252
:1027C40000040192C2F2000906E02368376801336D
:1027D4002360FFF721FF4FB92B68002BF5D1D9F8FF
:1027E4000030012BF8D901F0DDF8F5E701F0FCF831
:1027F400DAF80C30D3F80CB00BF1040000F03AFE18
:10280400019A1368013B1360D8F80030013BC8F803
:10281400003001F0FDF8DBF8300001F07FF8584695
:1028240001F07CF8D8E700BF08B540F2CC03C2F24F
:1028340000031968002935D140F24012C2F20002A7
:1028440040F23C13C2F200031160196840F26802BE
:1028540001EB8101C2F2000252F8211079B9196822
:10286400184611B925E0016819B3196801391960CE
:10287400196801EB810152F821100029F3D01B687B
:1028840003EB830302EB830202F1080153685B68E4
:102894008B42536010D040F2D402DB68C2F20002D3
:1028A400136008BD40F24013C2F2000301221A6013
:1028B40008BD01F083F8FEE75B685360EBE700BFF7
:1028C40038B50D4600283FD040F2D404C2F20004CB
:1028D4002168183100F0B4FD2068043000F0CAFD0E
:1028E4006B1C27D040F2F003C2F20003196822687F
:1028F4001B680D449D42556011D340F24803C2F257
:10290400000318682168043100F09AFD40F21803AE
:10291400C2F200031A68954238BF1D6038BD40F208
:10292400F403C2F2000318682168BDE8384004319A
:1029340000F086BD216840F228100431C2F2000084
:10294400BDE8384000F06CBD01F038F8FEE700BF88
:1029540038B50D4640B340F2D404C2F200042168F5
:10296400183100F05DFD2068043000F083FD40F272
:10297400F003C2F20003196822681B680D449D42EB
:10298400556014D340F24803C2F20003186821686A
:10299400043100F055FD40F21803C2F200031A6836
:1029A400954238BF1D6038BD01F008F8FEE740F2DB
:1029B400F403C2F2000318682168BDE8384004310A
:1029C40000F03EBD38B5C368DC68002C3CD004F18F
:1029D4001805284600F04EFD40F2CC03C2F2000375
:1029E4001B684BBB251D284600F044FD40F23C12F9
:1029F400C2F20002E36A116840F268008B4288BFA9
:102A04001360C2F2000003EB8303294600EB83004A
:102A140000F006FD40F2D403C2F20003E26A1B6830
:102A2400DB6A9A4281BF40F24013C2F200030120E4
:102A3400186098BF002038BD40F2D8002946C2F281
:102A4400000000F0EDFCE5E700F0B8FFFEE700BF92
:102A540008B560B140F2EC0240F2F003C2F20002A9
:102A6400C2F2000312681B6880E80C0008BD00F085
:102A7400A5FFFEE7F8B504460D46002831D069B33A
:102A840000F0B2FF40F2F0032E68C2F20003721CA1
:102A940018681ED040F2EC02C2F2000221681768E6
:102AA400B942616801D088420ED2471ABE420BD99E
:102AB400301A12681B6801442960002584E80C0060
:102AC40000F0A6FF2846F8BD012500F0A1FF284626
:102AD400F8BD002500F09CFF2846F8BD00F06EFF0D
:102AE400FEE700F06BFFFEE740F24013C2F2000382
:102AF40001221A60704700BF40F2D403C2F20003FF
:102B04001868704740F24C03C2F200031B684BB1D3
:102B140040F2CC03C2F20003186800280CBF022064
:102B24000020704701207047F8B50446F8B140F220
:102B3400D405C2F20005C36A2A68D26A934216D247
:102B44008269002AA4BF2A68D26A40F26806A4BF38
:102B5400C2F10502826103EB8303C2F200064269FB
:102B640006EB83039A4203D02B68DB6AC362F8BD89
:102B7400071D384600F07EFC40F23C122B68C2F27E
:102B84000002DB6A1168E3628B4203EB830088BFB7
:102B9400136006EB80003946BDE8F84000F040BC05
:102BA40038B5044620B3C26A436C9A4220D0051D4E
:102BB400284600F05FFCA269636C002AA4BFC3F13D
:102BC4000502A26140F23C12C2F2000240F2680027
:102BD4001168E3628B4288BF1360C2F2000003EB0A
:102BE4008303294600EB8300BDE8384000F018BC9D
:102BF40038BD00BF30B40568034665B1026CC468D3
:102C0400406814448442DC6028BFDD60084630BC60
:102C1400D968FDF74FBB30BC704700BF38B50446D8
:102C240000F0E2FEA36C002B14DD636A93B104F19F
:102C3400240507E0A36C013BA364A36C002B09DD0E
:102C4400636A3BB12846FFF7BDFE0028F2D0FFF7C8
:102C54004BFFEFE74FF0FF33A36400F0D9FE00F021
:102C6400C3FE636C002B14DD236993B104F11005DA
:102C740007E0636C013B6364636C002B09DD23692B
:102C84003BB12846FFF79EFE0028F2D0FFF72CFF49
:102C9400EFE74FF0FF336364BDE8384000F0B8BE9F
:102CA40070B505460E4678B34C2000F009FE044684
:102CB40050B306FB05F0013000F002FE206000B3C3
:102CC400E563266400F090FE216CE26B236802FB4E
:102CD40001F2511A98185D184FF0FF320021A163D8
:102CE400A36062646060A26404F11000E56000F017
:102CF40087FB04F1240000F083FB00F089FE2046EA
:102D040070BD204600F00AFE00F058FEFEE700BF4A
:102D14002DE9F04F85B00446894601921F460028EC
:102D240000F0E580002900F02381022F57D0FFF73F
:102D3400E9FE18B9019B002B40F0178100F054FE06
:102D4400A26BE36B4FF0000B9A42DA4604F11005D4
:102D540004F124064FF0FF3871D3022F00F0DA801B
:102D64000198002800F0CF80BBF1000F00F0BB8079
:102D740000F04EFEFFF77EFB00F036FE636C01337D
:102D840008BFC4F844A0A36C013308BFC4F848A02A
:102D940000F03EFE02A801A9FFF76CFE002840F0F7
:102DA400A98000F021FEA26BE36B9A425AD000F096
:102DB4002FFE00F019FEA36C002B06DC15E0A36CBB
:102DC400013BA364A36C002B0FDD636A6BB1304637
:102DD400FFF7F8FD0028F2D0FFF786FEEFE7E36B7C
:102DE400012BA4D000F0EAFDFEE7C4F8488000F00F
:102DF4000FFE00F0F9FD636C002B12DD236943B96B
:102E04000FE0636C013B6364636C002B09DD226992
:102E14003AB12846FFF7D6FD0028F2D0FFF764FE4A
:102E2400EFE7C4F8448000F0F3FDFFF7F5FB00F092
:102E3400DBFDA26BE36B9A424FF0010B8DD2226C47
:102E4400002A69D0002F78D14946A068FDF732FAEC
:102E5400A168236C62680B449342A36062D3236825
:102E6400A3605FE000F0D4FD28460199FFF728FD38
:102E740000F0BAFDA36C002B06DC0FE0A36C013B51
:102E8400A364A36C002B09DD636A3BB13046FFF7F2
:102E940099FD0028F2D0FFF727FEEFE7C4F8488039
:102EA40000F0B6FD00F0A0FD636C002B06DC0FE023
:102EB400636C013B6364636C002B09DD23693BB1E4
:102EC4002846FFF77FFD0028F2D0FFF70DFEEFE75D
:102ED400C4F8448000F09CFDFFF79EFB0028A6D1B7
:102EE40000F060FDA3E702A8FFF7B2FD40E700F0A1
:102EF40065FDFEE72046FFF791FEFFF78DFB0020FE
:102F040005B0BDE8F08F009000F082FD009805B098
:102F1400BDE8F08F226C82B925681DB96068FFF79F
:102F24003FFE6560A26B636A0132A2633BBB00F0A3
:102F34006FFD012005B0BDE8F08F4946E068FDF75C
:102F4400B9F9236CE26821685B421A448A42E26060
:102F54003EBF62689B18E360022FE3D1A36B002B92
:102F6400E0D0A36B013BA363DCE700F027FDFEE7A1
:102F7400036C002B3FF4D9AE00F020FDFEE704F112
:102F84002400FFF71FFD0128D1D100F00BFDCEE78F
:102F94002DE9F04104460E4690461D4600282FD0E8
:102FA40000296FD0022D10D000F0F0FD00F006FDD6
:102FB400A26BE36B9342074698BF00240BD83846B4
:102FC40000F022FD2046BDE8F081E36B012B33D0F5
:102FD40000F0F4FCFEE7226CAAB92568002D4CD061
:102FE400A36B0133A363A36C01331BD0A36C013324
:102FF400A3643846012400F007FD2046BDE8F081B3
:1030040000F0DCFCFEE705BB3146A068FDF752F991
:10301400A168236C62680B449342A360E0D32368E5
:10302400A360DDE7636A002B32D13846012400F047
:10303400EBFC2046BDE8F08100F0A8FD00F0BEFCEA
:10304400A26B226C0746002AC7D03146E068FDF720
:1030540031F9236CE26821685B421A448A42E260D7
:103064003EBF62689B18E360022DB9D1A36B002BAD
:10307400B6D0A36B013BA363B2E76068FFF790FD92
:103084006560ADE7036C002B8CD000F097FCFEE785
:1030940004F12400FFF796FC0028C6D00124B8F1FF
:1030A400000F8CD03846C8F8004000F0ADFC204634
:1030B400BDE8F0812DE9F04F85B0044688460192C1
:1030C4009A46002800F0DC80002900F00B81FFF70D
:1030D40019FD18B9019B002B40F0018100F084FC1C
:1030E400A36B4FF0000BD94604F124054FF0FF37D2
:1030F40004F11006002B6FD10198002800F0D48051
:10310400BBF1000F00F0B88000F082FCFFF7B2F9C9
:1031140000F06AFC636C013308BFC4F84490A36CEC
:10312400013308BFC4F8489000F072FC02A801A95A
:10313400FFF7A0FC002840F0AE8000F055FCA36B24
:10314400002B62D100F064FC2368002B00F09B800C
:1031540028460199FFF7B4FB00F046FCA36C002B52
:1031640006DC0FE0A36C013BA364A36C002B09DD18
:10317400636A3BB12846FFF725FC0028F2D0FFF72D
:10318400B3FCEFE7A76400F043FC00F02DFC636C94
:10319400002B12DD236943B90FE0636C013B6364C8
:1031A400636C002B09DD22693AB13046FFF70AFC53
:1031B4000028F2D0FFF798FCEFE7676400F028FCE2
:1031C400FFF72AFA08B900F0EDFB00F00DFCA36B41
:1031D4004FF0010B002B8FD041462046E568FFF7E6
:1031E40009FDBAF1000F66D1A26B2368013AA2630C
:1031F40013B9FFF781FC60602369002B68D100F0EC
:1032040007FC012005B0BDE8F08F00F001FC00F0E0
:10321400EBFBA36C002B06DC0FE0A36C013BA36467
:10322400A36C002B09DD636A3BB12846FFF7CAFB98
:103234000028F2D0FFF758FCEFE7A76400F0E8FBA2
:1032440000F0D2FB636C002B06DC0FE0636C013BE7
:103254006364636C002B09DD23693BB13046FFF7DF
:10326400B1FB0028F2D0FFF73FFCEFE7676400F002
:10327400CFFBFFF7D1F9A8E702A8FFF7E9FB43E783
:1032840000F09CFBFEE700F0AFFB6068FFF74CFC2E
:1032940000F0BEFB5CE72046FFF7C0FCFFF7BCF97B
:1032A400002005B0BDE8F08F009000F0B1FB00985D
:1032B40005B0BDE8F08F636AE560002B9FD004F190
:1032C4002400FFF77FFB002899D000F06BFB96E702
:1032D40004F11000FFF776FB012890D1F5E700F028
:1032E4006DFBFEE7036C002B3FF4F1AE00F066FBD0
:1032F400FEE700BF42F26463C2F2000310B41A682E
:103304008AB19A68BAB11A69BAB19A69BAB11A6A31
:10331400BAB19A6ABAB11A6B22B19A6BAAB15DF8C2
:10332400044B7047062203EBC20443F8321060607A
:103334005DF8044B70470122F5E70222F3E703220C
:10334400F1E70422EFE70522EDE70722EBE700BFF0
:1033540038B504460D4600F047FB636C013304BFE7
:1033640000236364A36C013304BF0023A36400F04F
:103374004FFBA36B23B9294604F12400FFF7E8FAB5
:1033840000F032FBA36C002B14DD636A93B104F1EB
:10339400240507E0A36C013BA364A36C002B09DDA7
:1033A400636A3BB12846FFF70DFB0028F2D0FFF714
:1033B4009BFBEFE74FF0FF33A36400F029FB00F021
:1033C40013FB636C002B14DD236993B104F1100526
:1033D40007E0636C013B6364636C002B09DD2369C4
:1033E4003BB12846FFF7EEFA0028F2D0FFF77CFB4A
:1033F400EFE74FF0FF336364BDE8384000F008BBEB
:1034040000F108034FF0FF310022816080E80C00D6
:10341400C3600361704700BF00230361704700BFAE
:1034240043689A6810B404688A609A684B600134EF
:1034340051609960086104605DF8044B704700BFF7
:1034440030B40D686B1C18BF00F1080201D10EE006
:103454001A4653681C68A542FAD204684B600134CA
:1034640099608A6051600861046030BC70470269E9
:103474005368F2E742688168036910B49160816817
:103484005C684A601A68844208BF5960013A0021A6
:1034940001615DF8044B1A60104670472DE9F04154
:1034A40040F27414C2F2000484B000F09DFAD4F81F
:1034B4000080B8F1000F1AD000F0AAFA2368002B9C
:1034C4003FD00023022243F2A95044F2B8018DE810
:1034D4000C0002930393C0F60000C0F600014FF401
:1034E4000072FEF735FE60B304B0BDE8F08140F22F
:1034F4004816C2F2000640F25C153046C2F20005DE
:10350400FFF77EFF2846FFF77BFF40F2441740F2A7
:103514007813C2F20003C2F2000742460A200C21CB
:103524003E601D60FFF7BCFB206068B144F2B0014F
:10353400C0F60001FFF7DEFE00F06AFA2368002BF4
:10354400BFD100F03BFAFEE700F038FAFEE700BF17
:1035540070B540F27414C2F2000484B02568EDB171
:10356400052901910292039007DD1A46284601A914
:103574000023FFF70DFD04B070BDFFF7C3FA022866
:1035840013BF00222068089A206807BF01A90023FE
:10359400134601A9FFF7BCFB04B070BD284604B074
:1035A40070BD00BF2DE9F04F40F278108BB040F2AF
:1035B400441540F2701840F27414C2F20000C2F2D2
:1035C4000005C2F20008C2F2000403902B681E68D2
:1035D400D6F1010638BF002600270EB9DB681F6844
:1035E400FEF748FFFEF74EFFD8F8003098428246B7
:1035F40059D386F0010387428CBF002303F00103F3
:1036040040F27010C2F20000C0F800A0002B77D185
:10361400CAEB07012068FFF79BFEFEF7FDFF0028B9
:1036240000F0958000221346206804A9FFF742FDAC
:103634000028CBD0049B002BF4DBDDF81890D9F8DC
:1036440014301BB109F10400FFF714FFFEF71AFF51
:10365400D8F800300290984245D3049B0299092B74
:10366400C8F80010DED8012202FA03F313F4047F31
:1036740040F0F98013F0C70F40F0CE809B06D1D5FF
:10368400484600F04BF9CDE7DB68DE68D3F80090DC
:1036940006F1040B5846FFF7EDFE736A304698476F
:1036A400F369012B3DD02B681A6840F24417C2F22B
:1036B4000007002AE8D10398C8F800A00268036054
:1036C4003A60FEF7A9FFADE7DB68DE68D3F800A037
:1036D40006F1040B5846FFF7CDFE736A304698474F
:1036E400F369012B28D02B681A6840F24417C2F200
:1036F4000007002AE8D10398026803603A60ACE747
:10370400FEF78AFF2B68DB68DE6806F1040B584677
:10371400FFF7B0FEF369012B1CD0736A304698475B
:1037240080E7B3694B444B4535D9736036613868DB
:103734005946FFF785FEB6E7B3695344534543D969
:103744007360366138685946FFF77AFECBE700F0BC
:1037540029F967E7B3693661FA18924572604CD368
:10376400C7EB0A0A534551D823688BB10020079050
:1037740008970996FFF7C6F940F27411C2F20001E6
:1037840000220868134607A9FFF7C2FA0028C4D12B
:1037940000F014F9FEE723689BB100210791CDF8EE
:1037A40020900996FFF7AEF940F27411C2F20001BD
:1037B40000220868134607A9FFF7AAFA00287FF435
:1037C40072AF00F0FBF8FEE723689BB1002207927A
:1037D400CDF820A00996FFF795F940F27411C2F2D2
:1037E400000100220868134607A9FFF791FA002890
:1037F4007FF479AF00F0E2F8FEE740F24413C2F23E
:10380400000359461868FFF71BFE86E7039A5946DA
:103814001068FFF715FE80E7059BD9F81810029889
:10382400C9F81090CA188242C9F804202FD8C31AC4
:1038340099423BD8D9F8243048469847D9F81C30E7
:10384400012B7FF4EFAED9F81820059B00211A4410
:10385400009148460B46FFF77BFE00287FF4E2AE5A
:1038640000F0ACF8FEE7059BC9F818302BB3029AB8
:10387400C9F8109013449342C9F8043096BF039BCF
:103884002868186809F10401FFF7DAFDCAE68342E3
:1038940094BF00210121934288BF00210029C9D18E
:1038A40009F104012868FFF7CBFDBBE6039A09F18F
:1038B40004011068FFF7C4FDB4E600F07FF8FEE7EA
:1038C40038B5430704461CBF20F007040834FEF74C
:1038D400D1FD42F28013C2F200031A681546B2B158
:1038E40040F27C13C2F2000341F6F7711A681444E3
:1038F4008C4207D8A24205D215441C60FEF78CFE08
:10390400284638BD0025FEF787FE284638BD024DFF
:1039140025F007051D60E3E78801002008B510B114
:1039240000F04CF8FEE708BD05480068006880F325
:10393400088862B6BFF34F8FBFF36F8F00DF00BFFD
:1039440008ED00E0DFF80C00016841F4700101604B
:103954007047000088ED00E030B443F6D1134FF017
:1039640080756FF00204C0F6000340F8045C40F870
:10397400244C40F8081C40F8202C40F80C3C30BC87
:1039840044387047064B19680868B0E8F04F80F374
:103994000988BFF36F8F4FF0000080F311887047E0
:1039A400D40000204EF60453CEF200034FF08052B0
:1039B4001A60BFF34F8FBFF36F8F7047EFF311801F
:1039C4004FF0500181F311887047002008B540F290
:1039D4001C03C2F200031B68013302D0FFF7EEFFA1
:1039E400FEE7FFF7EBFFFEE708B5FFF7E7FF40F25E
:1039F4001C03C2F200031A6801321A60BFF34F8F2E
:103A0400BFF36F8F08BD00BF80F31188704700BFFC
:103A140008B540F21C03C2F20003186818B101385B
:103A2400186018B108BDFFF7C9FFFEE7BDE80840FC
:103A3400FFF7EABFEFF30980BFF36F8F124B1A68E9
:103A44001EF0100F08BF20ED108A20E9F04F10601F
:103A54004DF8043D4FF0500080F31188FEF7E4FE6A
:103A64004FF0000080F3118808BC19680868B0E8BA
:103A7400F04F1EF0100F08BFB0EC108A80F30988D5
:103A8400BFF36F8F704700BFD400002008B5FFF765
:103A940095FFFEF703FD30B14EF60453CEF200035A
:103AA4004FF080521A600020BDE80840FFF7ACBF19
:103AB4004EF214024EF21003CEF200024DF23F1108
:103AC400CEF20003C0F20C010720116018607047A9
:103AD40010B54FF46443CEF2000382B01978FF228C
:103AE400C9B201911A701B78DBB28DF803309DF8CE
:103AF40003409DF8031042F2841242F28810C2F28D
:103B04000002C2F2000004F05004072309061470F6
:103B140003600ED5062300E00B469DF803205200F7
:103B2400D2B28DF803209DF80320120603F1FF3171
:103B3400F2D4019C4FF46441CEF200011B024EF614
:103B44002052CEF2000203F4E063E4B203600C708E
:103B5400136843F470031360136843F070431360F5
:103B6400FFF7A6FF40F21C03C2F2000300221A6012
:103B7400FFF7E8FE4EF63473CEF200031A6842F003
:103B840040421A60FFF7D0FEFFF720FF08B5EFF3BD
:103B940005810F290BD94EF2F03242F28413CEF292
:103BA4000002C2F200038A5C1B78934211D84EF6DD
:103BB4000C52CEF2000242F28813C2F200031268E1
:103BC4001B6802F4E0629A4200D808BDFFF7F6FED3
:103BD400FEE7FFF7F3FEFEE738B54FF440524FF42B
:103BE4006053C4F20102C4F20003904218BF984229
:103BF40004460D460BD04FF470524FF45053C4F2A8
:103C04000002C4F20103904218BF98420FD1012D63
:103C140022D944F2C000C0F600004FF40971FDF748
:103C24009DFD23889BB243F04003238038BD4FF4AD
:103C3400A0424FF4A843C4F20102C4F2010390422B
:103C440018BF9842E3D044F2C000C0F6000040F22E
:103C54002321FDF783FDDAE7002DE2D1238823F049
:103C640040031B041B0C238038BD00BF4FF440529B
:103C74004FF46053C4F20102C4F20003904218BF2F
:103C8400984210B5044620D04FF470524FF450536C
:103C9400C4F20002C4F20103904218BF984214D047
:103CA4004FF4A0424FF4A843C4F20102C4F201034A
:103CB400904218BF984208D04FF45053C4F2000306
:103CC400984218BFB0F1402F02D1A08980B210BD34
:103CD40044F2C000C0F6000040F22B31FDF73EFD77
:103CE400F3E700BF38B54FF440524FF46053C4F2C9
:103CF4000102C4F20003904218BF984204460D46E4
:103D040020D04FF470524FF45053C4F20002C4F266
:103D14000103904218BF984214D04FF4A0424FF4CC
:103D2400A843C4F20102C4F20103904218BF9842AE
:103D340008D04FF45053C4F20003984218BFB0F1B6
:103D4400402F01D1A58138BD44F2C000C0F6000067
:103D540040F23B31FDF702FDF4E700BFF8B54FF444
:103D640040564FF46053C4F20106C4F20003B0425B
:103D740018BF984204460D4617460BD04FF47052B4
:103D84004FF45053C4F20002C4F20103904218BF2E
:103D9400984223D1012F07D944F2C000C0F6000095
:103DA40040F26A41FDF7DAFC712D18BF602D09D08D
:103DB400502D07D044F2C000C0F6000040F26B4121
:103DC400FDF7CCFC01232D0903FA05F5A388ADB258
:103DD4009BB20FBB23EA0505A580F8BD4FF4A042B2
:103DE4004FF4A843C4F20102C4F20103904218BF85
:103DF4009842CFD04FF45053C4F20003984218BFF6
:103E0400B0F1402FC6D044F2C000C0F6000040F22A
:103E14006941FDF7A3FCBDE71D43A580F8BD00BFC4
:103E240038B54FF440524FF46053C4F20102C4F267
:103E34000003904218BF984204460D460BD04FF43D
:103E440070524FF45053C4F20002C4F20103904282
:103E540018BF984219D1602D18BF712D03D0A5F158
:103E64005303032B2FD8A188208905F00F030122C7
:103E740080B202FA03F3184089B205D02D09AA4092
:103E840011420CBF0020012038BD4FF4A0424FF472
:103E9400A843C4F20102C4F20103904218BF98423D
:103EA400D9D04FF45053C4F20003984218BFB0F174
:103EB400402FD0D044F2C000C0F600004FF49B6104
:103EC400FDF74CFCC7E7582DCDD044F2C000C0F636
:103ED400000040F2D941FDF741FCC4E7002103E0B2
:103EE4000B4B5B58435004310A480B4B42189A421F
:103EF400F6D30A4A02E0002342F8043B084B9A42F4
:103F0400F9D3FDF71FFBFCF7A7F9FDF7EFFB7047AB
:103F14001C41000800000020200000202000002098
:103F2400A4260020FEE700004C6962726172696594
:103F3400732F53544D3332463478785F537464503E
:103F440065726970685F4472697665722F73726313
:103F54002F6D6973632E63004C69627261726965C7
:103F6400732F53544D3332463478785F537464500E
:103F740065726970685F4472697665722F737263E3
:103F84002F73746D3332663478785F6770696F2E7F
:103F9400630000004C69627261726965732F535447
:103FA4004D3332463478785F537464506572697067
:103FB400685F4472697665722F7372632F73746DD0
:103FC4003332663478785F6932632E630000000010
:103FD4004C69627261726965732F53544D33324672
:103FE4003478785F5374645065726970685F4472A2
:103FF400697665722F7372632F73746D333266340E
:1040040078785F7263632E63000000004C6962720B
:1040140061726965732F53544D3332463478785F37
:104024005374645065726970685F4472697665722E
:104034002F7372632F73746D3332663478785F75BF
:10404400736172742E6300005461736B3220697360
:1040540020637265617465642021210A0D000000EB
:104064006D616C6C6F6320256420627974657320C4
:104074000D0A00005461736B31206973206372650B
:10408400617465642021210A0D00000068656C6C70
:104094006F2025642025640A0D0000005461736BB1
:1040A400310000005461736B32000000546D725192
:1040B40000000000546D7220537663004C696272F4
:1040C40061726965732F53544D3332463478785F87
:1040D4005374645065726970685F4472697665727E
:1040E4002F7372632F73746D3332663478785F7311
:1040F40070692E6300000000F8B500BFF8BC08BC6E
:104104009E467047F8B500BFF8BC08BC9E46704791
:044114001D02000880
:04411800ED010008AD
:10411C000000000001020304010203040607080961
:10412C0001000000FFFFFF00FFFFFFFFAAAAAAAAE1
:0400000508003EE1D0
:00000001FF
